:020000040800F2
:1000000000000220456D0008A9140008AB14000888
:10001000AD140008AF140008B1140008000000007F
:10002000000000000000000000000000B314000801
:10003000B514000800000000B7140008B914000847
:10004000956D0008956D0008956D0008956D000888
:10005000956D0008956D0008956D0008956D000878
:10006000956D0008956D0008956D0008BD14000899
:10007000956D0008956D0008956D0008956D000858
:10008000CD140008956D0008956D0008956D000869
:10009000956D0008956D0008956D0008956D000838
:1000A000956D0008DD140008956D0008956D000839
:1000B000956D0008956D0008956D0008956D000818
:1000C000956D0008956D0008956D0008956D000808
:1000D000956D0008956D0008956D0008956D0008F8
:1000E000956D0008956D0008956D0008956D0008E8
:1000F000956D0008ED140008956D0008956D0008D9
:10010000956D0008956D0008956D0008FD140008B8
:10011000956D0008956D0008956D0008956D0008B7
:10012000956D0008956D0008956D0008956D0008A7
:10013000956D00080000000000000000956D0008AB
:10014000956D0008956D0008956D00080D15000867
:10015000956D0008956D0008956D0008956D000877
:10016000956D0008956D0008956D0008956D000867
:10017000956D0008956D000800000000000000006B
:08018000956D0008956D000863
:1001900081F0004102E000BF83F0004330B54FEA38
:1001A00041044FEA430594EA050F08BF90EA020FA5
:1001B0001FBF54EA000C55EA020C7FEA645C7FEA38
:1001C000655C00F0E2804FEA5454D4EB5555B8BF5B
:1001D0006D420CDD2C4480EA020281EA030382EACC
:1001E000000083EA010180EA020281EA0303362D5E
:1001F00088BF30BD11F0004F4FEA01314FF4801C31
:100200004CEA113102D0404261EB410113F0004F42
:100210004FEA03334CEA133302D0524263EB4303F9
:1002200094EA050F00F0A780A4F10104D5F1200E97
:100230000DDB02FA0EFC22FA05F2801841F10001F2
:1002400003FA0EF2801843FA05F359410EE0A5F1C6
:1002500020050EF1200E012A03FA0EFC28BF4CF0F7
:10026000020C43FA05F3C01851EBE37101F00045AD
:1002700007D54FF0000EDCF1000C7EEB00006EEBBA
:100280000101B1F5801F1BD3B1F5001F0CD3490844
:100290005FEA30004FEA3C0C04F101044FEA44529B
:1002A00012F5800F80F09A80BCF1004F08BF5FEA22
:1002B000500C50F1000041EB045141EA050130BD02
:1002C0005FEA4C0C404141EB0101013C28BFB1F514
:1002D000801FE9D291F0000F04BF01460020B1FA5F
:1002E00081F308BF2033A3F10B03B3F120020CDA32
:1002F0000C3208DD02F1140CC2F10C0201FA0CF010
:1003000021FA02F10CE002F11402D8BFC2F1200C74
:1003100001FA02F120FA0CFCDCBF41EA0C0190402A
:10032000E41AA2BF01EB0451294330BD6FEA040473
:100330001F3C1CDA0C340EDC04F11404C4F120025E
:1003400020FA04F001FA02F340EA030021FA04F370
:1003500045EA030130BDC4F10C04C4F1200220FAC7
:1003600002F001FA04F340EA0300294630BD21FA05
:1003700004F0294630BD94F0000F83F4801306BFCB
:1003800081F480110134013D4EE77FEA645C18BFBF
:100390007FEA655C29D094EA050F08BF90EA020F56
:1003A00005D054EA000C04BF1946104630BD91EA4E
:1003B000030F1EBF0021002030BD5FEA545C05D151
:1003C0004000494128BF41F0004130BD14F5800490
:1003D0003CBF01F5801130BD01F0004545F0FE4104
:1003E00041F470014FF0000030BD7FEA645C1ABF39
:1003F000194610467FEA655C1CBF0B46024650EA70
:10040000013406BF52EA033591EA030F41F400219B
:1004100030BD00BF90F0000F04BF0021704730B521
:100420004FF4806404F132044FF000054FF00001F6
:1004300050E700BF90F0000F04BF0021704730B5B7
:100440004FF4806404F1320410F0004548BF40428C
:100450004FF000013EE700BF42004FEAE2014FEAE1
:1004600031014FEA02701FBF12F07F4393F07F4FBC
:1004700081F06051704732F07F4208BF704793F0BF
:100480007F4F04BF41F40021704730B54FF46074D2
:1004900001F0004521F000411CE700BF50EA0102D5
:1004A00008BF704730B54FF000050AE050EA01027E
:1004B00008BF704730B511F0004502D5404261EBEE
:1004C00041014FF4806404F132045FEA915C3FF42F
:1004D000D8AE4FF003025FEADC0C18BF03325FEACC
:1004E000DC0C18BF033202EBDC02C2F1200300FA7D
:1004F00003FC20FA02F001FA03FE40EA0E0021FAA2
:1005000002F11444BDE600BF4FEA4102B2F1E043FC
:1005100024BFB3F5001CDCF1FE5C0DD901F0004CEA
:100520004FEAC0024CEA5070B2F1004F40EB83003A
:1005300008BF20F00100704711F0804F21D113F166
:100540003872BCBF01F00040704741F480114FEA9F
:100550005252C2F11802C2F1200C10FA0CF320FA28
:1005600002F018BF40F001004FEAC1234FEAD32345
:1005700003FA0CFC40EA0C0023FA02F34FEA4303AF
:10058000CCE77FEA625307D150EA01331EBF4FF038
:10059000FE4040F44000704701F0004040F0FE4053
:1005A00040F40000704700BF53B94AB9002908BFA2
:1005B00000281CBF4FF0FF314FF0FF3000F00CB8A7
:1005C000ADF1080C6DE904CE06F0E6FBDDF804E0C1
:1005D000DDE9022304B07047704700BF10F8012B1B
:1005E00011F8013B012A28BF9A42F7D0D01A704770
:1005F00001F0FF01102A2BDB10F0070F08D010F8D4
:10060000013B013A8B422DD010F0070F42B3F6D1D7
:10061000F0B441EA012141EA014122F007047FF0F0
:1006200000070023F0E80256083C85EA010586EA47
:10063000010685FA47F5A3FA87F586FA47F6A5FA83
:1006400087F68EB9EED1F0BC01F0FF0102F007028F
:1006500032B110F8013B013A83EA010313B1F8D13A
:100660000020704701387047002D06BF354603381B
:10067000073815F0010F07D1013015F4807F02BF54
:10068000013015F4C03F0130F0BC0138704700BFA5
:10069000034613F8012B002AFBD1181A01387047C2
:1006A00070B54FF0FF0C4CF4E06C1CEA11541DBF08
:1006B0001CEA135594EA0C0F95EA0C0F00F0DEF8D3
:1006C0002C4481EA030621EA4C5123EA4C5350EAB8
:1006D000013518BF52EA033541F4801143F4801309
:1006E00038D0A0FB02CE4FF00005E1FB02E506F09A
:1006F0000042E0FB03E54FF00006E1FB03569CF0EF
:10070000000F18BF4EF0010EA4F1FF04B6F5007FF4
:1007100064F5407404D25FEA4E0E6D4146EB060666
:1007200042EAC62141EA55514FEAC52040EA5E50EF
:100730004FEACE2EB4F1FD0C88BFBCF5E06F1ED899
:10074000BEF1004F08BF5FEA500E50F1000041EBD0
:10075000045170BD06F0004646EA010140EA02007D
:1007600081EA0301B4EB5C04C2BFD4EB0C0541EA9F
:10077000045170BD41F480114FF0000E013C00F3B4
:10078000AB8014F1360FDEBF002001F0004170BDD8
:10079000C4F10004203C35DA0C341BDC04F11404F1
:1007A000C4F1200500FA05F320FA04F001FA05F27D
:1007B00040EA020001F0004221F0004110EBD3704A
:1007C00021FA04F642EB06015EEA430E08BF20EA76
:1007D000D37070BDC4F10C04C4F1200500FA04F319
:1007E00020FA05F001FA04F240EA020001F00041AB
:1007F00010EBD37041F100015EEA430E08BF20EA1E
:10080000D37070BDC4F1200500FA05F24EEA020E65
:1008100020FA04F301FA05F243EA020321FA04F094
:1008200001F0004121FA04F220EA020000EBD3704B
:100830005EEA430E08BF20EAD37070BD94F0000F4B
:100840000FD101F00046400041EB010111F4801F7F
:1008500008BF013CF7D041EA060195F0000F18BF30
:10086000704703F00046520043EB030313F4801F6C
:1008700008BF013DF7D043EA0603704794EA0C0F26
:100880000CEA135518BF95EA0C0F0CD050EA41063C
:1008900018BF52EA4306D1D181EA030101F00041B9
:1008A0004FF0000070BD50EA410606BF10461946E1
:1008B00052EA430619D094EA0C0F02D150EA0136ED
:1008C00013D195EA0C0F05D152EA03361CBF10462E
:1008D00019460AD181EA030101F0004141F0FE41CD
:1008E00041F470014FF0000070BD41F0FE4141F451
:1008F000780170BD70B54FF0FF0C4CF4E06C1CEA51
:1009000011541DBF1CEA135594EA0C0F95EA0C0F05
:1009100000F0A7F8A4EB050481EA030E52EA0335C0
:100920004FEA013100F088804FEA03334FF08055E1
:1009300045EA131343EA12634FEA022245EA11150E
:1009400045EA10654FEA00260EF000419D4208BFBF
:10095000964244F1FD0404F5407402D25B084FEA6C
:100960003202B61A65EB03055B084FEA32024FF418
:1009700080104FF4002CB6EB020E75EB030E22BF75
:10098000B61A754640EA0C005B084FEA3202B6EB35
:10099000020E75EB030E22BFB61A754640EA5C00E4
:1009A0005B084FEA3202B6EB020E75EB030E22BF74
:1009B000B61A754640EA9C005B084FEA3202B6EB75
:1009C000020E75EB030E22BFB61A754640EADC0034
:1009D00055EA060E18D04FEA051545EA16754FEA96
:1009E00006164FEAC30343EA52734FEAC2025FEAB4
:1009F0001C1CC0D111F4801F0BD141EA00014FF043
:100A000000004FF0004CB6E711F4801F04BF014313
:100A10000020B4F1FD0C88BFBCF5E06F3FF6AFAE2F
:100A2000B5EB030C04BFB6EB020C5FEA500C50F1BF
:100A3000000041EB045170BD0EF0004E4EEA113142
:100A400014EB5C04C2BFD4EB0C0541EA045170BD49
:100A500041F480114FF0000E013C90E645EA060E8D
:100A60008DE60CEA135594EA0C0F08BF95EA0C0FBB
:100A70003FF43BAF94EA0C0F0AD150EA01347FF403
:100A800034AF95EA0C0F7FF425AF104619462CE7DA
:100A900095EA0C0F06D152EA03353FF4FDAE10463D
:100AA000194622E750EA410618BF52EA43067FF48E
:100AB000C5AE50EA41047FF40DAF52EA43057FF41E
:100AC000EBAE12E74FF0FF3C06E000BF4FF0010C29
:100AD00002E000BF4FF0010C4DF804CD4FEA410C8D
:100AE0007FEA6C5C4FEA430C18BF7FEA6C5C1BD05A
:100AF00001B050EA410C0CBF52EA430C91EA030FDB
:100B000002BF90EA020F0020704710F1000F91EA37
:100B1000030F58BF994208BF90422CBFD8176FEA05
:100B2000E37040F0010070474FEA410C7FEA6C5CD3
:100B300002D150EA013C07D14FEA430C7FEA6C5CDA
:100B4000D6D152EA033CD3D05DF8040B704700BF06
:100B50008446104662468C461946634600E000BF54
:100B600001B5FFF7B7FF002848BF10F1000F01BD26
:100B70004DF808EDFFF7F4FF0CBF012000205DF8F1
:100B800008FB00BF4DF808EDFFF7EAFF34BF012076
:100B900000205DF808FB00BF4DF808EDFFF7E0FF0F
:100BA00094BF012000205DF808FB00BF4DF808ED60
:100BB000FFF7CEFF94BF012000205DF808FB00BFC7
:100BC0004DF808EDFFF7C4FF34BF012000205DF8A9
:100BD00008FB00BF4FEA410C7FEA6C5C02D150EA8F
:100BE000013C0AD14FEA430C7FEA6C5C02D152EA25
:100BF000033C02D14FF0000070474FF001007047F6
:100C00004FEA410212F5001215D211D56FF4787334
:100C1000B3EB625212D94FEAC12343F0004343EAD7
:100C2000505311F0004F23FA02F018BF40427047B2
:100C30004FF00000704750EA013005D111F000403C
:100C400008BF6FF0004070474FF00000704700BFD2
:100C50000348044B834202D0034B03B1184770474B
:100C6000E4020020E4020020000000000548064BDA
:100C70001B1AD90F01EBA301491002D0034B03B19A
:100C800018477047E4020020E40200200000000042
:100C900010B5064C237843B9FFF7DAFF044B13B1C4
:100CA0000448AFF300800123237010BDE40200204C
:100CB0000000000028AC000808B5054B1BB1054931
:100CC0000548AFF30080BDE80840FFF7CFBF00BF85
:100CD00000000000E802002028AC00082DE9F041E7
:100CE0008AB005AD002405940694079408940994ED
:100CF0000094394B1A6B42F004021A631A6B02F02B
:100D000004020092009A01941A6B42F080021A6366
:100D10001A6B02F080020192019A02941A6B42F05F
:100D200002021A631A6B02F002020292029A039400
:100D30001A6B42F001021A631A6B02F0010203926D
:100D4000039A04941A6B42F008021A631B6B03F0B7
:100D500008030493049BDFF8908022464FF400516F
:100D6000404601F055FA1D4E224641F2040130463C
:100D700001F04EFA4FF400530593012706970794AC
:100D800008942946404601F04DF941F204030593C9
:100D90000697079408942946304601F043F94FF42A
:100DA000004305930694079429460D4801F03AF94B
:100DB000042305930694079729460A4801F032F95F
:100DC00030230593069407942946304601F02AF90A
:100DD0000AB0BDE8F08100BF0038024000040240C4
:100DE00000000240000C02400008024010B582B032
:100DF000002401940D4B1A6B42F400121A631B6B12
:100E000003F400130193019B224621460B2001F0BD
:100E100025FC0B2001F032FC22462146102001F077
:100E20001DFC102001F02AFC02B010BD0038024069
:100E30000FB430B583B006AB53F8042B0E4D0F49F9
:100E400003C92860A9800193FB21681D06F0F4FE08
:100E5000441D0B4AC0F1FB01281906F04FFE044463
:100E6000002C04DC03B0BDE8304004B07047A1B2F0
:100E7000284602F04DFDF5E70003002040AC0008D5
:100E800048AC000808B5024802F0CEFA08BD00BF21
:100E90003004002010B52DED048B84B06848FFF7B6
:100EA000C7FF9FED688A3DE0DFED677A38EE278A5D
:100EB000B0EE480A08F0CEFF9FED649A60EE098A12
:100EC000B0EE480A08F0FEFF614C03AB02AA01A98C
:100ED00060EE090AB0EE680A204602F0C9F9D4EDC6
:100EE000017A9DED017A27EE877A5A4B1B68BCEE9A
:100EF000C77A83ED0D7A9DED027A27EE877ABCEEF4
:100F0000C77A83ED0E7A9DED037A67EE877AFCEE61
:100F1000E77AC3ED0F7A052001F0E0FBFFF7B2FF9F
:100F2000F0EE408ADFED4C7AB4EEE78AF1EE10FA8B
:100F3000BAD94FF4FA7001F0D1FB3DE0DFED427A0F
:100F400038EE678AB0EE480A08F084FFDFED3F9A7A
:100F500020EE299AB0EE480A08F0B4FF3C4C03ABEF
:100F600002AA01A960EE290AB0EE490A204602F061
:100F70007FF9D4ED017A9DED017A27EE877A354B22
:100F80001B68BCEEC77A83ED0D7A9DED027A27EEE1
:100F9000877ABCEEC77A83ED0E7A9DED037A67EE11
:100FA000877AFCEEE77AC3ED0F7A052001F096FB15
:100FB000FFF768FFF0EE409AB5EEC08AF1EE10FA46
:100FC000BCDC78EEA97AB6EE007A67EE877AB9EEE5
:100FD0000C7A67EE877A214BC3ED007A06E09FED2D
:100FE000207A77EE877A1D4BC3ED007A1B4BD3ED49
:100FF000007AF5EEC07AF1EE10FAF0D406E09FED3B
:10100000187A77EEC77A154BC3ED007A134BD3ED00
:10101000007A9FED137AF4EEC77AF1EE10FAEEDA69
:1010200017EE900AFFF718FA02460B460D48FFF735
:10103000FFFE0D4802F010F904B0BDEC048B10BDAA
:101040004CAC00080000000035FA0E3D6666E63F35
:101050000000002040040020DB0FC941F4050020FF
:10106000DB0FC94064AC00080800002008B5026826
:10107000034B9A4200D008BD01F01EFBFBE700BF06
:101080000020004072B6FEE710B596B0002412941E
:101090001394149415941094119409940A940B9435
:1010A0000C940D940E940F942022214601A806F072
:1010B000EAFD3548354B03600123436060238360BC
:1010C00040F2E733C360046144618023836101F02F
:1010D0003FFD002848D14FF48053129312A92A48AB
:1010E00001F041FE002841D1274801F05DFD0028B4
:1010F0003ED120231093119010A9234801F0C8FF7E
:10110000002837D17023099302460A900B900C9067
:101110000D900E900F9009A91B4801F0A9FD58BB36
:10112000042209A9184801F0A3FD38BB082209A927
:10113000154801F09DFD18BB4FF4006301934FF477
:101140008063029303909622049205904FF400521C
:101150000692089001A90C4801F0E0FF90B90A48F6
:1011600000F0D4FA16B010BDFFF78CFFFFF78AFF2E
:10117000FFF788FFFFF786FFFFF784FFFFF782FF87
:10118000FFF780FFFFF77EFF4004002000000140D2
:1011900008B50F480F4B03604FF482734360002380
:1011A00083604FF40062C2600361012242614FF428
:1011B000007282611822C2610362436283620A2361
:1011C000C36200F0E7FA00B908BDFFF75BFF00BF9C
:1011D00048050020003C004008B50A480A4B03605F
:1011E0000A4B436000238360C3604FF48042026176
:1011F00043618361C361036205F04AFB00B908BD26
:10120000FFF740FFA005002000540040A086010029
:1012100010B594B008AC30220021204606F033FD12
:101220000023039304930593069307930193204AA5
:10123000116C41F080511164126C02F080520192E5
:10124000019A02931B4B1A6842F480421A601B6891
:1012500003F480430293029B012308934FF48033ED
:10126000099302230E934FF480020F9204221092EE
:10127000A8221192129307231393204600F084FBB7
:1012800088B90F2303930223049305904FF4A053CE
:1012900006934FF480530793052103A800F0DEFD69
:1012A00018B914B010BDFFF7EDFEFFF7EBFE00BF5D
:1012B000003802400070004000B583B001F0E2F950
:1012C000FFF7A6FFFFF70AFDFFF790FDFFF7DCFE33
:1012D000FFF75EFF02F018FAFFF77EFF5B4C236812
:1012E00000255D639D63DD632946204601F0CAFD4C
:1012F0000421204601F0C6FD0821204601F0C2FD70
:101300002946204601F04CFE0421204601F048FE0B
:101310000821204601F044FE2268536C43F4004348
:1013200053644B4801F08EFF012001F0D7F9DFED47
:10133000490AB2EE080A484801F095FF4749484873
:1013400002F028F835E0474D5DE00020002163E021
:1013500045494648FFF742F9F8B9444B93F8243021
:10136000DBB143494348FFF739F940B93F4B93F8A4
:10137000253023B13D4B1A6A3F4B1A6019E03F49B3
:101380003C48FFF72BF9A0B9384B93F8253083B1CF
:10139000364B1A6A3A4B1A600BE03A493348FFF76A
:1013A0001DF9002849D038493048FFF717F90028BF
:1013B00047D02B4C204602F019F8344B83ED000A3D
:1013C000204602F013F810EE100AFFF745F8024627
:1013D0000B462F48FFF72CFD2E4B1B78002BE8D037
:1013E00000222C4B1A702C4B1B78DBB22B48C254BA
:1013F0001E4902F0D5F80028DBD01C4B93F82430AE
:10140000002BA0D01B4D194B93F82530002B9CD0FE
:10141000164B186AFFF720F8144CCDE900012A4654
:1014200021461F48FFF704FD1E492046FFF7D6F866
:1014300000288DD1FFF72EFDBBE7054801F002FF24
:10144000B7E7034801F008FFB3E700BF40040020FE
:101450000800002000007A4400000020A0050020C1
:101460003004002074AC0008A8AC00080804002078
:10147000ACAC00081804002000040020B0AC000848
:1014800020000020B8AC0008BCAC00080404002018
:1014900078AC0008A40B0020A50B0020A80B0020AE
:1014A00088AC0008A0AC0008FEE7FEE7FEE7FEE718
:1014B000FEE77047704770477047000008B5024864
:1014C00000F08AFF08BD00BFE804002008B502480C
:1014D00000F082FF08BD00BF8804002008B5024864
:1014E00001F01FFA08BD00BF4004002008B5024803
:1014F00001F017FA08BD00BF0006002008B5024839
:1015000000F0A8F908BD00BF4805002008B5024852
:1015100002F09BFE08BD00BF080E002082B0002133
:1015200000910B4B5A6C42F480425A645A6C02F49C
:1015300080420092009A01911A6C42F080521A6423
:101540001B6C03F080530193019B02B0704700BFF6
:101550000038024030B589B000230393049305930B
:10156000069307930268144B9A4201D009B030BD2C
:1015700000250195114C236B43F002032363236B79
:1015800003F002030193019B4FF440730393122372
:101590000493032306930423079303A9084800F048
:1015A00041FD0295236C43F400132364236C03F480
:1015B00000130293029BD9E7005400400038024018
:1015C0000004024030B589B00023039304930593CF
:1015D000069307930268374B9A4201D009B030BD99
:1015E00004460025019503F5FE331A6C42F40042CF
:1015F0001A641A6C02F400420192019A02951A6B65
:1016000042F004021A631B6B03F004030293029B73
:101610004FF4E0530393022304930323069306231A
:10162000079303A9244800F0FDFC2448244B0360E1
:1016300045608560C5604FF4806303614FF40063CB
:1016400043614FF400538361C5614FF480330362FB
:10165000456200F049FE38BB184BE3649C631948AF
:10166000194B03600023436040228260C3604FF443
:10167000806202614FF4006242614FF40052826165
:10168000C3614FF480320262436200F02DFE70B9F4
:101690000C4BA3649C6300221146332000F0DEFF54
:1016A000332000F0EBFF99E7FFF7ECFCD4E7FFF7FE
:1016B000E9FCEDE7003C004000080240E80400209F
:1016C00010600240880400208860024002680E4BCF
:1016D0009A4200D0704700B583B00021019103F514
:1016E0009C335A6C42F001025A645B6C03F00103B4
:1016F0000193019B0A46192000F0B0FF192000F069
:10170000BDFF03B05DF804FB00000140F0B589B0F7
:1017100000230393049305930693079302681A4BDF
:101720009A4201D009B0F0BD0024019403F59C3326
:101730001A6B42F002021A631A6B02F00202019263
:10174000019A02941A6B42F001021A631B6B03F0B8
:1017500001030293029B4FF4604303930227049713
:101760000126079603AD2946084800F05BFC4FF4BC
:10177000E06303930497059406940796294604486A
:1017800000F050FCCEE700BF000001400004024022
:101790000000024000285AD010B50446436A33B90D
:1017A0004368B3F5827F05D00023C36102E00023C4
:1017B000036143610023A36294F85130002B40D0B1
:1017C000022384F851302268136823F04003136029
:1017D000636803F48273A26802F404421343E2686C
:1017E00002F400621343226902F0020213436269A9
:1017F00002F001021343A26902F400721343E2698A
:1018000002F038021343226A02F080021343A26AF4
:1018100002F40052216813430B60638B03F004034E
:10182000626A02F01002216813434B602268D36998
:1018300023F40063D36100206065012384F85130F4
:1018400010BD84F850302046FFF7BCFEB8E70120F9
:101850007047704730B585B0044602685168936898
:10186000C3F3801013F0400F05D113F0010F02D025
:1018700011F0400F68D113F0020F02D011F0800F69
:1018800066D1C3F3401513F0200F03D110B913F440
:10189000807F60D011F0200F5DD070B194F85100BE
:1018A00003285AD0606D40F004006065002000906D
:1018B000D068009090680090009865B1606D40F02D
:1018C000010060650020029090680290106820F08E
:1018D00040001060029A13F4807F09D0636D43F0DA
:1018E000080363650023039323689B680393039BAA
:1018F000636D002B2FD02268536823F0E003536000
:10190000012384F8513011F0030F2ED02268536860
:1019100023F003035360E36C4BB1164A1A65E06C85
:1019200000F048FD18B1636D43F040036365A36C9C
:101930008BB1104A1A65A06C00F03CFD58B1636D84
:1019400043F04003636506E0236C2046984702E0BD
:10195000636C2046984705B030BD00230193D368DF
:10196000019393680193019BF5E72046FFF771FF10
:10197000F1E700BF7919000808B5806B0023C38721
:10198000C386FFF766FF08BD002800F0E08170B550
:1019900082B00446036813F0010F3BD09F4B9B6855
:1019A00003F00C03042B2CD09C4B9B6803F00C031E
:1019B000082B21D06368B3F5803F4FD0B3F5A02F3B
:1019C00052D0964B1A6822F480321A601A6822F4B8
:1019D00080221A606368002B50D000F079FE054623
:1019E0008E4B1B6813F4003F14D100F071FE401BB6
:1019F0006428F5D90320B1E1884B5B6813F4800FAC
:101A0000D8D0864B1B6813F4003F03D06368002BCB
:101A100000F09F81236813F0020F54D07F4B9B6826
:101A200013F00C0F3ED07D4B9B6803F00C03082B8A
:101A300033D0E368002B68D0794B01221A6000F0A4
:101A400047FE0546754B1B6813F0020F54D100F09A
:101A50003FFE401B0228F5D903207FE16F4A13683F
:101A600043F480331360B5E76C4B1A6842F480226C
:101A70001A601A6842F480321A60ABE700F028FE60
:101A80000546664B1B6813F4003FC3D000F020FEF0
:101A9000401B6428F5D9032060E1604B5B6813F4B8
:101AA000800FC6D15D4B1B6813F0020F03D0E368B3
:101AB000012B40F05081594A136823F0F803216943
:101AC00043EAC1031360236813F0080F42D063692F
:101AD0006BB3534B0122C3F8802E00F0F9FD05468D
:101AE0004E4B5B6F13F0020F34D100F0F1FD401B41
:101AF0000228F5D9032031E1484A136823F0F8039E
:101B0000216943EAC1031360DDE7454B00221A60F7
:101B100000F0DEFD0546414B1B6813F0020FD2D0EA
:101B200000F0D6FD401B0228F5D9032016E13C4BFE
:101B30000022C3F8802E00F0CBFD0546374B5B6FCB
:101B400013F0020F06D000F0C3FD401B0228F5D9A8
:101B5000032003E1236813F0040F77D02F4B1B6C95
:101B600013F0805F33D1002301932C4B1A6C42F0A9
:101B700080521A641B6C03F080530193019B012572
:101B8000284B1B6813F4807F23D0A368012B34D02B
:101B9000052B38D0214B1A6F22F001021A671A6FF9
:101BA00022F004021A67A368002B3DD000F090FDDC
:101BB00006461A4B1B6F13F0020F46D100F088FD4A
:101BC000801B41F288339842F3D90320C6E00025F8
:101BD000D6E7144A136843F48073136000F078FD6D
:101BE0000646104B1B6813F4807FCED100F070FDC9
:101BF000801B0228F5D90320B0E0084A136F43F098
:101C000001031367CFE7054B1A6F42F004021A670E
:101C10001A6F42F001021A67C5E700BF00380240A0
:101C2000000047420070004000F052FD0646524B53
:101C30001B6F13F0020F08D000F04AFD801B41F229
:101C400088339842F3D9032088E0EDB9A369002BCB
:101C500000F08380484A926802F00C02082A51D0B2
:101C6000022B17D0454B00221A6600F031FD0446C6
:101C7000414B1B6813F0007F42D000F029FD001B90
:101C80000228F5D9032069E03B4A136C23F0805306
:101C90001364DBE7394B00221A6600F019FD054694
:101CA000354B1B6813F0007F06D000F011FD401B80
:101CB0000228F5D9032051E0E369226A1343626ADE
:101CC00043EA8213A26A5208013A43EA0243E26AF3
:101CD00043EA0263284A5360284B01221A6600F047
:101CE000F7FC0446244B1B6813F0007F06D100F07C
:101CF000EFFC001B0228F5D903202FE000202DE087
:101D000000202BE0012B2BD01B4B5B6803F48001E0
:101D1000E269914226D103F03F02216A8A4223D12F
:101D2000616A47F6C0721A40B2EB811F1ED103F4FC
:101D30004031A26A5208013AB1EB024F18D103F0C8
:101D40007063E26AB3EB026F14D1002006E0012059
:101D50007047012002E0012000E0002002B070BDC9
:101D60000120FBE70120F9E70120F7E70120F5E773
:101D70000120F3E70120F1E700380240000047426C
:101D800008B5334B9B6803F00C03042B5BD0082B86
:101D90005BD12F4B5A6802F03F025B6813F4800F4F
:101DA0002CD02B4B5868C0F388104FEA401CBCEB7A
:101DB000000C6EEB0E0E4FEA8E1343EA9C634FEA63
:101DC0008C11B1EB0C0163EB0E03DB0043EA5173A2
:101DD000C90011EB000C43F10003590200234FEA44
:101DE0004C2041EADC51FEF7DFFB194B5B68C3F383
:101DF000014301335B00B0FBF3F008BD144B58689E
:101E0000C0F388104FEA401CBCEB000C6EEB0E0ECA
:101E10004FEA8E1343EA9C634FEA8C11B1EB0C013D
:101E200063EB0E03DB0043EA5173C90011EB000CB6
:101E300043F10003990200234FEA8C2041EA9C51B0
:101E4000FEF7B2FBD1E70348D7E70348D5E700BF69
:101E50000038024000127A000024F400002800F04C
:101E60009B8070B50D4604464F4B1B6803F007037B
:101E70008B4208D2CBB24C4A1370136803F00703AD
:101E80008B4240F08B80236813F0020F17D013F0C1
:101E9000040F04D0454A936843F4E05393602368E9
:101EA00013F0080F04D0414A936843F460439360F1
:101EB0003E4A936823F0F003A1680B4393602368C4
:101EC00013F0010F32D06368012B21D09A1E012A32
:101ED00025D9364A126812F0020F61D033498A6858
:101EE00022F0030213438B6000F0F2FB06462F4BF7
:101EF0009B6803F00C036268B3EB820F16D000F00E
:101F0000E7FB801B41F288339842F0D9032042E07E
:101F1000264A126812F4003FE0D101203BE0234A38
:101F2000126812F0007FD9D1012034E01E4B1B68EB
:101F300003F00703AB4207D9EAB21B4B1A701B68C8
:101F400003F00703AB422DD1236813F0040F06D032
:101F5000164A936823F4E053E1680B4393602368C7
:101F600013F0080F07D0114A936823F460432169E6
:101F700043EAC1039360FFF703FF0C4B9B68C3F375
:101F800003130B4AD35CD8400A4B18600A4B1868FD
:101F900001F068FB002070BD012070470120FAE7C6
:101FA0000120F8E70120F6E7003C0240003802403B
:101FB00018AD00082C00002028000020014B1868F4
:101FC000704700BF2C00002008B5FFF7F7FF044B57
:101FD0009B68C3F38223034AD35CD84008BD00BF8B
:101FE0000038024010AD00080F2303600B4B9A68C5
:101FF00002F0030242609A6802F0F00282609A687E
:1020000002F4E052C2609B68DB0803F4E053036112
:10201000034B1B6803F007030B6070470038024056
:10202000003C024000230F2B00F2E98070B582B023
:1020300065E085684FEA430E032404FA0EF425EAAE
:102040000405CC6804FA0EF42C438460446824EA46
:1020500002044A68C2F300129A40224342605CE0E4
:10206000DC08083450F8242003F00705AD004FF0D9
:102070000F0E0EFA05FE22EA0E0E0A69AA4042EA87
:102080000E0240F824205CE0072200E0002202FA61
:102090000EF22A4302345A4D45F82420594A9468D6
:1020A0006FEA0C0224EA0C054E6816F4801F01D07A
:1020B0004CEA0405534CA560E46802EA04054E6846
:1020C00016F4001F01D04CEA04054E4CE56064682C
:1020D00002EA04054E6816F4003F01D04CEA0405FC
:1020E000484C6560246822404D6815F4803F01D05B
:1020F0004CEA0402434C226001330F2B7DD80122AD
:102100009A400C6804EA020C32EA0404F4D14C68E8
:1021100004F00304013C012C8BD94A6802F003024D
:10212000032A09D0C4685D000322AA4024EA0204FD
:102130008A68AA402243C2604A6802F00302022A67
:102140008ED004684FEA430E032202FA0EF224EA0C
:1021500002044A6802F0030202FA0EF2224302600D
:102160004A6812F4403FC7D000220192264A546CBC
:1021700044F480445464526C02F480420192019A07
:102180009C08A51C1E4A52F8255003F0030E4FEA86
:102190008E0E0F2202FA0EF225EA02051B4A904229
:1021A0003FF474AF02F5806290421AD002F580626B
:1021B000904218D002F58062904216D002F58062FB
:1021C000904214D002F58062904212D002F58062F3
:1021D000904210D002F5806290423FF455AF082241
:1021E00055E7012253E7022251E703224FE7042279
:1021F0004DE705224BE7062249E702B070BD704764
:1022000000380140003C014000380240000002401C
:102210000AB18161704709048161704710B4036895
:10222000D9B210390A4AA2FB01421209094CA25C38
:10223000C2655F2907D96FF3090304338365806D95
:102240005DF8044B70476FF309038365F7E700BF40
:10225000ABAAAAAA08AD0008836A826992B9012BC9
:102260000AD0022B02D00BB100207047C36A13F0D2
:10227000807F28D100207047C36AB3F1C07F24D08B
:1022800000207047B2F5005F09D0022B25D9032B3F
:1022900025D1C36A13F0807F23D100207047032B20
:1022A00003D8DFE803F01404140A00207047C36A5F
:1022B00013F0807F0DD100207047C36AB3F1C07F57
:1022C00009D000207047012070470120704701208D
:1022D000704701207047012070470120704700209F
:1022E000704701207047000070B5044600F0F0F917
:1022F000002C5BD00546022384F83530002384F897
:1023000034302268136823F00103136023681A68CD
:1023100012F0010F0AD000F0DBF9431B052BF5D9B1
:1023200020236365032084F8350070BD1A682049B6
:1023300011406268A0680243E068024320690243DA
:1023400060690243A0690243E0690243206A0243D4
:102350000A43616A04291ED01A602668756925F04F
:102360000705636A1D43042B07D1A36A1D43E36A73
:102370001BB12046FFF770FF90B975612046FFF74B
:102380004DFFE26D3F239340836000206065012391
:1023900084F83530C9E7E16A206B01430A43DBE783
:1023A00040236365012084F83500BEE70120BCE7C7
:1023B0003F8010F090F83530022B03D08023436526
:1023C00001207047052380F835300268136823F038
:1023D0000103136000207047F0B583B0044600236A
:1023E0000193724B1D68724BA3FB0535AD0A876DD7
:1023F0003E68C26D08239340334210D003681A68C8
:1024000012F0040F0BD01A6822F004021A60C26D99
:1024100008239340BB60436D43F001034365E26DC5
:1024200001239340334209D02268526912F0800F91
:1024300004D0BB60636D43F002036365E26D042367
:102440009340334209D02268126812F0020F04D080
:10245000BB60636D43F004036365E26D102393403A
:10246000334224D02268126812F0080F1FD0BB60DC
:1024700023681A6812F4802F0DD01B6813F4002F04
:1024800004D1236C9BB12046984710E0A36C73B134
:10249000204698470BE01A6812F4807F03D11A682F
:1024A00022F008021A60236C0BB120469847E26DB7
:1024B00020239340334254D02268126812F0100F48
:1024C0004FD0BB6094F83530052B0ED023681A68C6
:1024D00012F4802F33D01B6813F4002F2AD1636CC1
:1024E000002B3ED0204698473BE02268136823F03B
:1024F000160313602268536923F080035361236C31
:10250000A3B12268136823F008031360E26D3F2330
:102510009340BB60012384F83530002384F83430C5
:10252000236D002B3FD0204698473CE0A36C002B46
:10253000E7D1EBE7E36BA3B12046984711E01A68B7
:1025400012F4807F09D11A6822F010021A60012368
:1025500084F83530002384F83430E36B0BB1204627
:102560009847636DFBB1636D13F0010F17D005231E
:1025700084F835302268136823F001031360019B4F
:1025800001330193AB4204D823681B6813F0010F99
:10259000F5D1012384F83530002384F83430E36C1E
:1025A0000BB12046984703B0F0BD00BF2C000020BF
:1025B000B5814E1B002807DB00F01F0240090123F4
:1025C0009340024A42F82030704700BF00E100E02B
:1025D000002808DB0901C9B200F1604000F5614044
:1025E00080F80013704700F00F000901C9B2014BD9
:1025F0001954704714ED00E000B500F00700C0F179
:10260000070CBCF1040F28BF4FF0040C031D062B70
:102610000FD9C31E4FF0FF3E0EFA0CF021EA000165
:1026200099400EFA03FE22EA0E0241EA02005DF82A
:1026300004FB0023EEE70000074AD36823F4E063BD
:102640001B041B0C000200F4E060034343F0BF6373
:1026500043F40033D360704700ED00E010B504464A
:10266000054BD868C0F30220FFF7C6FF014620469D
:10267000FFF7AEFF10BD00BF00ED00E008B5FFF7AB
:1026800099FF08BD08B50B4B1A6842F400721A6036
:102690001A6842F480621A601A6842F480721A6002
:1026A0000320FFF7C9FF0F2000F0DCFFFEF736FF25
:1026B000002008BD003C0240034A1168034B1B7810
:1026C0000B441360704700BFF80500202400002071
:1026D000014B1868704700BFF805002038B5044664
:1026E000FFF7F6FF0546B4F1FF3F02D0044B1B781D
:1026F0001C44FFF7EDFF401BA042FAD338BD00BFDA
:102700002400002030B4036A026A22F0010202624F
:102710004268846924F0730C0C6844EA0C0423F0CA
:10272000020C8B6843EA0C03114DA84203D005F557
:102730008065A84205D123F00803CD682B4323F020
:1027400004030B4DA84203D005F58065A84207D1CC
:1027500022F440724D6945EA020C8A6942EA0C0291
:10276000426084614A684263036230BC704700BFC4
:102770000000014030B4036A026A22F480720262EF
:102780004268C46924F0730C0C6844EA0C0523F415
:1027900000738C6843EA0423114CA04203D004F573
:1027A0008064A04206D123F40063CC6843EA04238A
:1027B00023F480630A4CA04203D004F58064A04255
:1027C00007D122F440524C6942EA04128C6942EA71
:1027D00004124260C5614A68C263036230BC70473C
:1027E0000000014030B4036A026A22F4805202629F
:1027F0004468C26922F4E6420D6842EA052223F4E5
:1028000000538D6843EA0533094DA84203D005F50E
:102810008065A84204D124F480444D6944EA8514BB
:102820004460C2614A680264036230BC704700BF02
:102830000000014010B4036A046A24F00104046239
:10284000846924F0F00C4CEA021223F00A030B43D3
:10285000826103625DF8044B704710B4036A046A36
:1028600024F010040462846924F4704C4CEA0232AF
:1028700023F0A00343EA0113826103625DF8044B75
:102880007047836823F070030B4343F007038360B2
:102890007047000090F83D30012B37D1022380F8BB
:1028A0003D300268D36843F00103D3600368194ADE
:1028B000934220D0B3F1804F1DD0A2F57C429342C9
:1028C00019D002F58062934215D002F580629342DE
:1028D00011D002F5784293420DD002F57052934226
:1028E00009D0A2F59432934205D01A6842F0010251
:1028F0001A60002070479A6802F00702062A07D083
:102900001A6842F001021A600020704701207047E7
:1029100000207047000001407047704770477047C3
:10292000704770B504460368DE681D6915F0020F34
:1029300010D016F0020F0DD06FF002021A610123C1
:10294000037703689B6913F0030F5ED0FFF7E6FF80
:102950000023237715F0040F12D016F0040F0FD0C8
:1029600023686FF004021A610223237723689B69AE
:1029700013F4407F4FD02046FFF7D0FF002323778A
:1029800015F0080F12D016F0080F0FD023686FF063
:1029900008021A61042323772368DB6913F0030F0D
:1029A00040D02046FFF7BAFF0023237715F0100F21
:1029B00012D016F0100F0FD023686FF010021A61BA
:1029C000082323772368DB6913F4407F31D0204646
:1029D000FFF7A4FF0023237715F0010F02D016F0B4
:1029E000010F2DD115F0800F02D016F0800F2FD1DE
:1029F00015F0400F02D016F0400F31D115F0200F26
:102A000002D016F0200F33D170BDFFF786FF2046AD
:102A1000FFF785FF9CE72046FFF77FFF2046FFF783
:102A20007EFFABE72046FFF778FF2046FFF777FFF2
:102A3000BAE72046FFF771FF2046FFF770FFC9E7AE
:102A400023686FF001021A612046FEF70FFBC9E709
:102A500023686FF080021A61204600F089FBC7E707
:102A600023686FF040021A612046FFF759FFC5E75F
:102A700023686FF020021A61204600F078FBC3E75C
:102A80000368324A904212D0B0F1804F0FD0A2F5C5
:102A90007C4290420BD002F58062904207D002F552
:102AA0008062904203D002F57842904203D123F035
:102AB00070034A681343254A90422AD0B0F1804FF0
:102AC00027D0A2F57C42904223D002F5806290424A
:102AD0001FD002F5806290421BD002F578429042EE
:102AE00017D002F57052904213D002F580629042E6
:102AF0000FD002F5806290420BD0A2F5983290423E
:102B000007D002F58062904203D002F580629042C5
:102B100003D123F44073CA68134323F080034A6946
:102B200013438A68C2620A688262084A904203D0EC
:102B300002F58062904201D10A690263026842F0A4
:102B400004020260012242610360704700000140FC
:102B500040B310B5044690F83D30F3B1022384F839
:102B60003D30214651F8040BFFF78AFF012384F81A
:102B7000463084F83E3084F83F3084F8403084F8A2
:102B8000413084F8423084F8433084F8443084F88B
:102B9000453084F83D30002010BD80F83C30FEF711
:102BA00095FDDBE70120704740B310B5044690F86F
:102BB0003D30F3B1022384F83D30214651F8040B37
:102BC000FFF75EFF012384F8463084F83E3084F836
:102BD0003F3084F8403084F8413084F8423084F843
:102BE000433084F8443084F8453084F83D30002088
:102BF00010BD80F83C30FFF78FFEDBE70120704707
:102C000030B4036A026A22F01002026244688269E8
:102C100022F4E6420D6842EA052223F020038D6883
:102C200043EA0513114DA84203D005F58065A8427B
:102C300006D123F08003CD6843EA051323F0400357
:102C40000A4DA84203D005F58065A84207D124F4B7
:102C500040644D6944EA85048D6944EA8504446012
:102C600082614A688263036230BC704700000140A1
:102C700038B590F83C30012B66D004460D46012350
:102C800080F83C300C2A5AD8DFE802F0075959592D
:102C90001B5959593059595944000068FFF732FD02
:102CA0002268936943F0080393612268936923F0D3
:102CB000040393612268936929690B43936100209F
:102CC0003EE00068FFF79CFF2268936943F40063CD
:102CD00093612268936923F4806393612268936906
:102CE000296943EA01239361002029E00068FFF786
:102CF00041FD2268D36943F00803D3612268D36998
:102D000023F00403D3612268D36929690B43D3619B
:102D1000002015E00068FFF765FD2268D36943F4E1
:102D20000063D3612268D36923F48063D36122688E
:102D3000D369296943EA0123D361002000E001201F
:102D4000002384F83C3038BD0220FCE710B48468CE
:102D500024F47F4C42EA03220A4342EA0C028260D6
:102D60005DF8044B704790F83C30012B78D010B5DB
:102D70000446012380F83C30022380F83D3002688D
:102D8000936823F47F4323F0770393600B68602BF1
:102D90004CD023D8402B54D011D8202B03D00AD8A4
:102DA0000BB1102B05D119462068FFF76AFD0020F2
:102DB00028E0012026E0302BF5D0012022E0502B26
:102DC0000AD1CA6849680068FFF734FD50212068BD
:102DD000FFF757FD002015E0012013E0B3F5805FF9
:102DE0003AD0B3F5005F14D0702B37D1CB684A6866
:102DF00089680068FFF7AAFF2268936843F07703A9
:102E000093600020012384F83D30002384F83C3097
:102E100010BDCB684A6889680068FFF797FF226891
:102E2000936843F4804393600020EBE7CA684968E5
:102E30000068FFF712FD60212068FFF722FD0020E7
:102E4000E0E7CA6849680068FFF7F4FC40212068A1
:102E5000FFF717FD0020D5E70020D3E70120D1E7D9
:102E60000220704701F01F014FF0010C0CFA01FC29
:102E7000036A23EA0C030362036A8A401343036272
:102E80007047000010B504460846002941D194F867
:102E90003E30013B18BF0123002B6BD100284ED1DF
:102EA000022384F83E30012201462068FFF7DAFF52
:102EB0002368324A934203D002F58062934203D1E1
:102EC0005A6C42F400425A6423682C4A934246D01A
:102ED000B3F1804F43D0A2F57C4293423FD002F53C
:102EE000806293423BD002F58062934237D002F574
:102EF0007842934233D002F5705293422FD0A2F51C
:102F0000943293422BD01A6842F001021A600020DA
:102F10002FE0042907D008290BD094F84130013B59
:102F200018BF0123B8E794F83F30013B18BF0123D5
:102F3000B2E794F84030013B18BF0123ACE7042806
:102F400005D0082807D0022384F84130ABE70223DC
:102F500084F83F30A7E7022384F84030A3E79A685B
:102F600002F00702062A07D01A6842F001021A602E
:102F7000002010BD0120FCE70020FAE7000001401E
:102F800001F00F014FF0040C0CFA01FC036A23EA74
:102F90000C030362036A8A40134303627047000014
:102FA00010B50446084600293AD194F84230013B56
:102FB00018BF0123002B64D1002847D1022384F8D5
:102FC0004230042201462068FFF7DAFF2268536C82
:102FD00043F40043536423682C4A934246D0B3F130
:102FE000804F43D0A2F57C4293423FD002F58062ED
:102FF00093423BD002F58062934237D002F578428B
:10300000934233D002F5705293422FD0A2F59432FE
:1030100093422BD01A6842F001021A6000202FE080
:10302000042907D008290BD094F84530013B18BF7C
:103030000123BFE794F84330013B18BF0123B9E7F0
:1030400094F84430013B18BF0123B3E7042805D0AE
:10305000082807D0022384F84530B2E7022384F819
:103060004330AEE7022384F84430AAE79A6802F0BE
:103070000702062A07D01A6842F001021A600020EF
:1030800010BD0120FCE70020FAE700BF000001406E
:1030900090F83C20012A3DD010B40346012280F86C
:1030A0003C20022280F83D2002685068946820F09D
:1030B000700C086840EA0C0050601A68164882429A
:1030C0001AD0B2F1804F17D0A0F57C40824213D0C5
:1030D00000F5806082420FD000F5806082420BD004
:1030E00000F57840824207D000F57050824203D04C
:1030F000A0F59430824204D124F080044968214331
:103100009160012283F83D20002083F83C005DF8A7
:10311000044B70470220704700000140024690F8BF
:103120003C30012B21D0012380F83C30CB6823F4C4
:1031300040738868034323F480634868034323F49F
:1031400000630868034323F480530869034323F4AE
:1031500000534869034323F48043C9690B43116852
:103160004B64002082F83C00704702207047704793
:1031700070470000034AD2F8883043F47003C2F865
:103180008830704700ED00E010B503460C4A0D4949
:103190000D48006840B10C4800680344521A93423D
:1031A00006D8094A136010BD0748084C0460F2E7CE
:1031B00004F0DCFD0C2303604FF0FF30F3E700BFA9
:1031C0000000022000040000FC0500204014002044
:1031D0000120704708B504F0C9FD162303604FF0C5
:1031E000FF3008BD08B54FF0FF31FFF7F3FFFEE7F2
:1031F00070B50C461646002506E0AFF30080214668
:1032000001F8010B01350C46B542F6DB304670BDC6
:1032100070B50C461646002504E014F8010BAFF318
:1032200000800135B542F8DB304670BD4FF0FF300D
:1032300070474FF400534B600020704701207047E7
:103240000020704708B50122018AC068FEF7E0FF40
:103250000120FFF743FA08BD08B50022018AC068C3
:10326000FEF7D6FF08BD80ED000AC0ED010A7047E9
:10327000F8B52DED048B0746B0EE409A0E46154684
:103280001C46BEEE008A20EE088ADFED417A60EE31
:10329000A70A78EE209A38EE608AF0EE690A06F006
:1032A0004BFEF0EE480A06F047FEF0EE408AF0EEE4
:1032B000690AB0EE490A06F067FEF0EE480A06F029
:1032C00063FE78EE807AB6EE007A67EE877A39EEA2
:1032D000679A79EEE79A38EE678AD7ED006AC9EE09
:1032E000267A77EE877AC6ED007AD7ED006AC9EEC6
:1032F000A67A77EE877AC5ED007AD7ED006AC8EE38
:10330000267A77EE877AC4ED007AD6ED007AF5EE6C
:10331000C07AF1EE10FA31D496ED007AF7EE007A29
:10332000B4EEE77AF1EE10FA01DDC6ED007AD5EDE4
:10333000007AF5EEC07AF1EE10FA22D495ED007A1B
:10334000F7EE007AB4EEE77AF1EE10FA01DDC5EDA2
:10335000007AD4ED007AF5EEC07AF1EE10FA13D4CB
:1033600094ED007AF7EE007AB4EEE77AF1EE10FA17
:1033700001DDC4ED007ABDEC048BF8BD00233360A1
:10338000CAE700232B60D9E700232360E8E700BFEA
:10339000D7B35D3F034638B141B10160002098804A
:1033A00000229A60DA607047012070470120704760
:1033B00010B586B004464FF0FF3302930223019309
:1033C00005AB009301230E226C21006803F03EFB45
:1033D00050B99DF814209DF8153043EA0223C3F339
:1033E0000B03A38006B010BD0120FBE710B5044617
:1033F000FFF7DEFF78B9A38800EE103AB8EEC00AF6
:10340000DFED067A20EE270ADFED057A20EE270AA7
:1034100084ED020A10BD94ED020AFBE70000B443FC
:10342000000080390000000010B50446FFF7C0FF1F
:10343000C8B9A38807EE903AF8EEE77A77EEA77A54
:1034400017EE900AFDF708F80AA3D3E90023FDF769
:1034500027F90022064BFDF723F9FDF755F800EE9A
:10346000100AE06010BD94ED030AFBE7AFF30080A3
:103470000000303F182D4454FB21094070B503462D
:1034800000E001331A78202AFBD02D2A05D02B2A00
:1034900007D00125002002460EE001334FF0FF3532
:1034A000F8E701330125F5E702EB8202ACF1300CBD
:1034B0000CEB42020133012093F800C01D4C14F8BC
:1034C0000CE01EF0040FEFD1BCF12E0F18D0F7EE78
:1034D000007A002498B107EE104AB8EEC77A27EEBA
:1034E000277A07EE902AF8EEE77A77EE877A07EEEA
:1034F000105AB8EEC77A67EE277AC1ED007A70BD30
:103500000133F7EE007A00240BE004EB8404ACF105
:10351000300C0CEB44049FED087A67EE877A013398
:10352000012093F800C0034E16F80CE01EF0040FC3
:10353000EBD1CFE729AD0008CDCCCC3D38B5044662
:10354000054600E001352B780A3BDBB2162B05D887
:10355000124A22FA03F313F0010FF3D12846FDF7C4
:1035600097F8421C2946204604F074FB2046FDF7DC
:103570008FF8421E224402E0002302F80139A242E1
:103580000AD313780A3BDBB2162B05D8034921FA7C
:1035900003F313F0010FEFD138BD00BF0900400065
:1035A00000285AD070B50C460646002957D028226C
:1035B0000021204604F067FB3046FFF7BFFF2C21B7
:1035C000304604F068FB054678B3002305F8013B5C
:1035D0003046FFF7B3FF0F223146204604F069FB67
:1035E0002846FFF7ABFF3D21284604F054FB064672
:1035F00038B3002306F8013B2846FFF79FFF30460B
:10360000FFF79CFF0F22294604F1100004F051FB44
:10361000012384F8243004F120013046FFF72EFF07
:10362000B0B1012084F825001AE00F22314620466F
:1036300004F03FFB002384F8243084F82530012077
:103640000EE0002384F8243084F82530012007E0C0
:10365000002384F82530012002E00020704700207C
:1036600070BD000030B589B0044600230193214BA2
:103670001A6C42F480721A641B6C03F48073019319
:10368000019B02A903A8FEF7AFFC069BCBB9FEF78E
:103690009BFC0346184AA2FB03239B0C013B1748E3
:1036A000174A026040F2E732C260436000230361C0
:1036B00083608361FFF74CFA054630B1284609B0B4
:1036C00030BDFEF781FC4300E4E70C48FFF7E2F869
:1036D00005460028F2D12D20FEF7D0FF0F2C01D98E
:1036E0000125EBE7002221462D20FEF7B7FF054B11
:1036F0001C60E3E70038024083DE1B430006002025
:10370000002000402800002008B500220F49104882
:1037100001F066FE70B90F490D4801F078FE60B9FE
:103720000D490B4802F069FE50B9094801F08FFEBF
:1037300048B908BDFDF7A6FCEDE7FDF7A3FCEFE7F0
:10374000FDF7A0FCF1E7FDF79DFCF2E76400002027
:1037500048060020D80000208000002012230B80A3
:10376000004870475000002004230B800048704739
:103770004C000020002393421ED200B510E00CF153
:10378000370C01F813C000014FEA430C0CF1010C97
:103790004FF0000E01F80CE00133DBB2934209D286
:1037A0004FEA107CB0F1204FE9D20CF1300C01F857
:1037B00013C0E8E75DF804FB7047000038B50B4B19
:1037C000D3F8100AD3F8144AD3F8183AC01800D125
:1037D00038BD074D08222946FFF7CCFF042205F12A
:1037E00010012046FFF7C6FFF2E700BF0070FF1F81
:1037F0003200002008B51A230B80FFF7DFFF0148D5
:1038000008BD00BF3000002008B50A4628B90549A8
:10381000054802F06BFB034808BD0249024802F06C
:1038200065FBF8E724090020C0AC000810B50A4683
:10383000034C2146034802F059FB204610BD00BF4F
:1038400024090020D8AC000808B50A4628B9054963
:10385000054802F04BFB034808BD0249024802F04C
:1038600045FBF8E724090020ECAC000808B50A463F
:1038700028B90549054802F039FB034808BD02494B
:10388000024802F033FBF8E724090020F8AC0008F6
:1038900000207047002070470020704738B504466C
:1038A0000D684DB90C4D2146284602F0BFFD284653
:1038B00002F0E3FD002038BD402D28BF40252A46F8
:1038C0000146064804F07FFAEAB2054B1A70054B30
:1038D00001221A70E6E700BF48060020A80B00206E
:1038E000A50B0020A40B002010B5064C00220649B1
:1038F000204602F08DFD0549204602F097FD00208C
:1039000010BD00BF48060020240B0020640B0020DF
:10391000094BD3F8BC32D3F814320BB101207047F5
:1039200010B5054C0A460146204602F071FD2046BE
:1039300002F088FD10BD00BF4806002030B589B0F8
:103940000023039304930593069307930368B3F14D
:10395000A04F01D009B030BD03AA00250195174C36
:10396000236B43F001032363236B03F001030193F3
:10397000019B4FF4C0530393022304930323069344
:103980000A23079311460E48FEF74CFB636B43F086
:10399000800363630295636C43F480436364636CE8
:1039A00003F480430293029B2A4629464320FEF7F4
:1039B00055FE4320FEF762FECCE700BF0038024010
:1039C0000000024008B500F29C41D0F8E00401F08C
:1039D00054FD08BD08B501EBC10300EB8303D3F828
:1039E0006022D0F8E00401F016FE08BD08B501EB36
:1039F000C10300EB83031A6AD0F8E00401F06EFE05
:103A000008BD08B5D0F8E00401F0B3FD08BD10B55D
:103A10000446C17911B1022909D10121D4F8E00489
:103A200001F08AFDD4F8E00401F053FD10BDFDF76C
:103A300029FB0121F2E7000010B50446D0F8E004AC
:103A400001F07DFD2268D2F8003E43F00103C2F888
:103A5000003EE37A23B1034A136943F0060313617E
:103A600010BD00BF00ED00E008B5D0F8E00401F0A3
:103A700074FD08BD08B5D0F8E00401F0A0FD08BD54
:103A800008B5D0F8E00401F084FD08BD08B5D0F811
:103A9000E00401F0AAFD08BD08B5D0F8E00401F08B
:103AA000A6FD08BD02780AB10020704710B5034694
:103AB0001548C0F8E034C3F8C8024FF0A0430360D3
:103AC000042303710222C271002383714272837244
:103AD000C37203738373C37300F0EEF880B90A4CAA
:103AE0008021204600F0B6FE40220021204600F052
:103AF0008BFE80220121204600F086FE002010BDB2
:103B0000FDF7C0FAEBE700BF080E0020D0F8C8327E
:103B100011F0800F08D101F07F0101EBC10103EB2F
:103B2000810393F85602704701F07F0101EBC10158
:103B300003EB8103987D704708B5D0F8C80200F008
:103B4000BFFA08BD00487047E80B00207047032803
:103B500005D8DFE800F005040205012070470320C6
:103B6000704708B5D0F8C80200F027F9FFF7EFFF5B
:103B700008BD08B594461A466346D0F8C80200F05E
:103B8000FCF9FFF7E4FF08BD08B5D0F8C80200F063
:103B90003AFAFFF7DCFF08BD08B5D0F8C80200F01C
:103BA000BDFAFFF7D4FF08BD08B5D0F8C80200F091
:103BB000F8FAFFF7CCFF08BD08B5D0F8C80200F04E
:103BC000C9F9FFF7C4FF08BD08B5D0F8C80200F076
:103BD00080FAFFF7BCFF08BD08B5D0F8C80200F0B6
:103BE0004AFAFFF7B4FF08BD2DE9F04383B0D0F8DF
:103BF000008001EBC10300EB83039A6A5B6A9A427F
:103C000054D807460C469B1A01EBC10200EB820216
:103C1000D2699A4200D31A4602F103094FEA990980
:103C200015E006F103094FEA9909BB7904EBC405D5
:103C300007EB8505296A0093B3B2E2B2404601F072
:103C40004AF92B6A33442B62AB6A3344AB6208EB0C
:103C5000441303F510639B699BB24B4512D304EBED
:103C6000C40307EB83039A6A5B6A9A420AD24BB198
:103C70009B1A04EBC40207EB8202D6699E42D0D3A2
:103C80001E46CEE704EBC40307EB83077A6ABB6AE0
:103C90009A420FD804F00F040122A240D8F8343819
:103CA00023EA0203C8F83438002000E0012003B002
:103CB000BDE8F0830020FAE730B583B000287AD061
:103CC0000446056890F89534C3B1032384F895340D
:103CD000B5F1A04F17D0206800F0AEFE237C8DF820
:103CE0000030231D0ECB206800F0E5FD70B10223EB
:103CF00084F895340125284603B030BD80F894340B
:103D0000FFF71CFEE1E70023A371E4E70021206830
:103D100001F0F7FA0246B8B903462079984218D95B
:103D200003EBC30104EB8101012048750B75CB85C2
:103D300000200876C861086203EBC30104EB81012F
:103D400048620133DBB2E8E7022384F895340125A9
:103D5000D1E7904217D902EBC20304EB83030021A1
:103D600083F8551283F8542283F85812C3F85C1272
:103D7000C3F8601202EBC20304EB8303C3F86412BE
:103D80000132D2B2E5E7237C8DF80030231D0ECB43
:103D9000206800F0A7FE054620B1022384F8953480
:103DA0000125A8E700236374012384F89534206873
:103DB00001F066FA9FE701259DE7036890F89424D7
:103DC000012A1AD010B50446012280F89424DA683A
:103DD00012F0400F02D0427B012A09D0206800F087
:103DE00025FE206801F03EFA002084F8940410BDFE
:103DF0009A6B42F480329A63F0E702207047000029
:103E000070B504460D460068066C00EB411303F5DF
:103E100030639A68A179012911D038498E4256D071
:103E20003DB905EBC50304EB8303D3F86432002BE3
:103E30005ED0E9B22046FFF7CDFD002070BD12F044
:103E4000080F09D02E498E42F7D912F4004FF4D052
:103E50004FF400429A60F0E712F0200F02D02022C7
:103E60009A60EAE712F0280FE7D125498E4206D979
:103E700012F4004F03D04FF400429A60DDE705EBE7
:103E8000C50204EB8202D2F874121B69C3F3120359
:103E9000CB1AC2F868327DB905EBC50204EB820289
:103EA000D2F864226AB105EBC50204EB8202D2F8B3
:103EB00060121944C2F86012E9B22046FFF78AFD89
:103EC000BBE704F29C42012101F05AFAF4E712F434
:103ED000004F03D04FF400429A60AEE712F0200F7B
:103EE00001D020229A60E9B22046FFF773FDA4E7D3
:103EF00004F29C42002101F043FA9AE70A31544F40
:103F00000A30544F38B5044603681D6C03EB411367
:103F1000D3F8081B0E4A954207D903F5306311F414
:103F2000004F02D04FF400429A602046FFF74AFD4E
:103F3000074B9D4202D9A379012B01D0002038BD47
:103F400004F29C420121206801F01AFAF6E700BF52
:103F50000A30544F90F89434012B0CD010B504461D
:103F6000012380F894344174006801F06BF900205B
:103F700084F8940410BD0220704738B505468C467D
:103F800011F0800F2BD101F00F0E0EEBCE04A40028
:103F900004F514740444211D0EEBCE0E00EB8E0EBE
:103FA00000208EF855020CF00F0C81F800C0C2F30F
:103FB0000A028A600B714A780AB1A1F81AC0022B72
:103FC0001CD095F89434012B1BD0012385F8943430
:103FD000286800F064FE002085F8940438BD01F0E4
:103FE0000F0000EBC001890010312944043100EBBF
:103FF000C00005EB800001244475D4E700234B7119
:10400000DFE70220EAE710B504460A4611F0800F08
:1040100020D101F00F0000EBC0039B0003F51473E7
:104020002344191D00EBC00004EB8000002380F83E
:10403000553202F00F020A7094F89434012B18D014
:10404000012384F89434206800F076FE002084F880
:10405000940410BD01F00F0000EBC0039B0010336F
:104060002344191D00EBC00004EB800001234375BD
:10407000DFE70220EDE710B5144601F00F0C0CEB62
:10408000CC01890001F51471014404310CEBCC0E14
:1040900000EB8E0ECEF86022CEF864320023CEF80C
:1040A00068328EF855328EF854C28279012A04D0D3
:1040B000006800F027FF002010BDCEF87042F7E73F
:1040C00001F00F0101EBC10100EB8100D0F86802A3
:1040D000704710B5144601F00F0C0CEBCC018900B1
:1040E0001031014404310CEBCC0E00EB8E0ECEF8F7
:1040F0002020CEF824300023CEF8283001238EF87B
:1041000015308EF814C082799A4204D0006800F00D
:10411000F9FE002010BDCEF83040F7E738B501F0C9
:104120000F050279AA4238D304460B4611F0800FDE
:104130001FD101EBC101890001F514710144043163
:1041400003EBC30300EB8303002283F85522012312
:104150008B700D7094F89434012B20D0012384F8D7
:104160009434206801F013F885B1002084F8940499
:1041700038BD05EBC501890010310144043105EB60
:10418000C50300EB830301225A75E0E704F29C4269
:10419000A179206801F0F4F8E7E70120E8E70220C0
:1041A000E6E701F00F0302799A4230D310B50446D6
:1041B00011F0800F1ED103EBC301890001F51471CA
:1041C0000144043103EBC30200EB8202002082F8B9
:1041D000550200228A700B7094F89434012B18D089
:1041E000012384F89434206800F0FEFF002084F856
:1041F000940410BD03EBC301890010310144043164
:1042000003EBC30200EB820201205075E1E70120BD
:1042100070470220EDE708B511F0800F0CD101F0D6
:104220000F0101EBC101890001F514710144043152
:10423000006800F0F1FD08BD01F00F0101EBC101C4
:104240008900103101440431F2E72DE9F04F83B0C9
:1042500004460568284601F050F810B103B0BDE8E7
:10426000F08F0646206801F019F80028F6D005F511
:104270000067BB68C3F30D23C4F8D434206801F091
:104280000DF810F0020F04D02268536903F0020306
:104290005361206801F002F810F0100F15D0226869
:1042A000936923F010039361D5F8208008F00F097B
:1042B00008F4F013B3F5802F4CD0B3F5402F6FD036
:1042C0002268936943F010039361206800F0E6FFD1
:1042D00010F4002F76D1206800F0E0FF10F4802F5A
:1042E00040F0E080206800F0D9FF0028C0F2618132
:1042F000206800F0D3FF10F4006F09D0BB6813F002
:10430000010F40F06E812268536903F4006353612A
:10431000206800F0C3FF10F4805F40F066812068E1
:1043200000F0BCFF10F4005F40F0B381206800F0A3
:10433000B5FF10F0080F40F0C481206800F0AEFF18
:1043400010F0800F00F0D781AB6923F08003AB61E0
:104350000126C0E147F6F07318EA030FB0D04FEA28
:10436000181A4FEAC903019309EBC90B04EB8B0B35
:10437000C8F30A12DBF86012284600F0E5FEDBF80D
:104380006032CAF30A0A5344CBF86032DBF8683271
:10439000019A4A4404EB82025344C2F868328FE720
:1043A000082204F29C41284600F0CEFE09EBC90326
:1043B00004EB8303D3F86822C8F30A184244C3F815
:1043C00068227DE7206800F06DFF8046B14635E049
:1043D00005EB49130122C3F8082B49462046FFF795
:1043E0000FFD3CE005EB49130822C3F8082B4946B2
:1043F0002046FFF787FD35E009EBC90304EB830393
:1044000093F85732012B41D005EB49130222C3F830
:10441000082B1AF0200F04D005EB49132022C3F813
:10442000082B1AF4005F05D005EB49134FF4005236
:10443000C3F8082B09F101094FEA5808B8F1000F39
:104440003FF449AF18F0010FF4D05FFA89FB5946E9
:10445000206800F037FF824610F0010FB8D11AF043
:10446000080FBFD11AF0100F04D005EB491310222A
:10447000C3F8082B1AF0020FCBD06B6913F0800F32
:10448000BAD07B6843F480637B60B5E709EBC9036E
:1044900004EB8303002283F8572259462046FFF796
:1044A000E9FAB1E7206800F005FF8046B14625E053
:1044B00059462046FFF79AFA1AF0080F04D005EB88
:1044C00049130822C3F808291AF0100F04D005EB8D
:1044D00049131022C3F808291AF0400F04D005EB45
:1044E00049134022C3F808291AF0020F40D11AF0EC
:1044F000800F59D109F101094FEA5808B8F1000FAE
:104500003FF4F0AE18F0010FF4D05FFA89FB594682
:10451000206800F0E0FE824610F0010FCCD009F0D8
:104520000F02012101FA02F27B6B23EA02037B6393
:1045300005EB4913C3F80819A3798B42B8D109EBED
:10454000C90304EB83031A6AD9690A441A62B9F1F0
:10455000000FADD109EBC90304EB83035B6A002BA9
:10456000A6D104F29C420121206800F009FF9FE7D8
:104570004946284600F066FA09EBC90304EB8303B9
:10458000DB7D012B05D005EB49130222C3F8082976
:10459000ADE709EBC90304EB83030022DA75594642
:1045A0002046FFF76DFAEEE749462046FFF71CFB71
:1045B000A0E77B6823F001037B6094F8CC34012BE7
:1045C00008D02046FFF750FA2268536903F00043F1
:1045D00053618DE6002184F8CC14204600F03EF9AA
:1045E000F2E72046FFF728FA8DE67B6823F0010307
:1045F0007B601021206800F025FA1AE005EB4613D5
:104600004FF67F31C3F80819D3F8002922F40012BD
:10461000C3F80029C3F8081BD3F8002B22F40012BA
:10462000C3F8002BD3F8002B42F00062C3F8002B34
:1046300001362379B342E1D8FB6943F00113FB61F2
:10464000E37BDBB1D7F8843043F00B03C7F8843049
:104650007B6C43F00B037B64D5F8003823F4FE63D6
:10466000C5F8003804F29C42A179206800F088FE69
:104670002268536903F48053536150E67B6943F425
:10468000005343F02B037B613B6943F00B033B6119
:10469000E2E7206800F066FE206800F0EFFAE071C3
:1046A0002668FDF78BFC0146E279304600F04CF9B4
:1046B0002046FFF7ACF92268536903F400535361B5
:1046C00034E62046FFF79DF92268536903F008039A
:1046D000536132E601362379B3420CD906EBC603A7
:1046E00004EB830393F85732012BF3D1F1B2204648
:1046F000FFF791FDEEE7206800F0D0FD10F4801F79
:1047000025D1206800F0CAFD10F4001F58D0012305
:1047100026E001362379B3421BD905EB4613D3F8C3
:10472000002906EBC60304EB83031B7E012BF0D1AB
:10473000002AEEDA06EBC60304EB83030122DA75E6
:1047400066F07F01C9B22046FFF765FDE1E701266B
:10475000E0E72268536903F480135361D1E7013322
:1047600022799A4227D905EB4312D2F8001B03EBBA
:10477000C30204EB820292F85822012AEFD10029E9
:10478000EDDAD4F8D42482EA114212F0010FE6D116
:1047900003EBC30204EB8202012182F85712AA69DB
:1047A00042F08002AA616A6912F0800FD7D17B685B
:1047B00043F400737B602268536903F40013536170
:1047C000206800F06BFD10F0804F10D1206800F0E1
:1047D00065FD10F0040F3FF441AD23685D6815F0EE
:1047E000040F0DD1226853682B43536036E52046F1
:1047F000FFF74CF92268536903F080435361E5E702
:104800002046FFF749F9EDE710B40468606A31B952
:1048100040EA0240A06200205DF8044B70478C46DD
:10482000A36A00EB1340002308E003F1400104EB0E
:104830008101496800EB11400133DBB20CF1FF311B
:104840008B42F2D340EA02400CF13F0104EB8104B9
:104850006060E0E70368596200207047704782B0EB
:1048600000230193019B01330193019BB3F1706F0E
:104870001CD80369002BF5DA0A23019302E0019B9F
:10488000013B0193019B002BF9D1036943F0010324
:104890000361019B01330193019BB3F1706F08D851
:1048A000036913F0010FF4D1002000E0032002B0EF
:1048B00070470320FBE784B010B5044603A880E8E6
:1048C0000E009DF81130012B21D1A36B23F480330E
:1048D000A363E36823F4840323F04003E360E36805
:1048E00023F44013E3609DF81830012B0AD02046D2
:1048F000FFF7B5FF9DF80E30012B1CD0BDE810402E
:1049000004B07047E36843F48013E360EFE7E368C3
:1049100043F04003E3602046FFF7A1FF9DF8153008
:1049200023B9A36B43F48033A363E3E7A36B23F4BE
:104930008033A363DEE7A36843F00603A360A368A4
:1049400043F02003A360D9E7022A0AD00922C368F2
:1049500023F47053C360C36843EA8223C36000201A
:104960007047234B0B44234A93422FD9224B0B44CD
:10497000224A93422CD9A1F57403A3F51053204A7F
:10498000934227D9A1F18373A3F5E7431D4A9342CC
:1049900022D31D4B0B441D4A93421FD91C4B0B4481
:1049A0001C4A93421CD31C4B0B441C4A934219D300
:1049B000A1F1B773A3F55853194A934214D3194B75
:1049C0000B44194A934211D20722C0E70F22BEE7D7
:1049D0000E22BCE70D22BAE70C22B8E70B22B6E79D
:1049E0000A22B4E70922B2E70822B0E70622AEE7BE
:1049F000405327FFFF340C00401E1BFF3F420F00B7
:104A00007F4F120020D6130060B6E5FE5FE316006C
:104A100000D3CEFE40771B00C05BB3FEC0912100E7
:104A200020753800E05459FEE09C4100836843F053
:104A30000103836000207047836823F001038360D3
:104A40000020704782B000230193019B0133019342
:104A5000019BB3F1706F15D80369002BF5DA0023C1
:104A60000193890141F020010161019B0133019310
:104A7000019BB3F1706F08D8036913F0200FF4D1D4
:104A8000002000E0032002B070470320FBE782B063
:104A900000230193019B01330193019BB3F1706FDC
:104AA00013D80369002BF5DA002301931023036167
:104AB000019B01330193019BB3F1706F08D8036927
:104AC00013F0100FF4D1002000E0032002B0704773
:104AD0000320FBE7D0F800381943C0F80018002085
:104AE0007047000084B0F8B5044607A880E80E00BF
:104AF000002306E003F1400204EB82020021516032
:104B000001330E2BF6D99DF8266006BBD4F8043885
:104B100043F00203C4F80438A36B43F40013A36307
:104B2000A36B23F40023A363A36B23F48023A36369
:104B30000023C4F8003E9DF82130012B15D19DF8CB
:104B40001F306BB900212046FFF7C4FF11E0A36BB3
:104B500023F40013A363A36B43F40023A363E7E7E9
:104B600001212046FFF7B6FF03E003212046FFF7AF
:104B7000B1FF10212046FFF765FF054600B1012572
:104B80002046FFF784FF00B1012504F5006C0023E7
:104B9000CCF81030CCF81430CCF81C300DE04FF0CD
:104BA0009040C2F8000902E00020C2F8000900228B
:104BB0000A614FF67F328A6001339DF81C109942DA
:104BC0000ED904EB431202F51061D2F80009002857
:104BD000EADA002BE3D14FF00060C2F80009E6E703
:104BE00000230AE0BBB14FF09047C2F8007B0022DF
:104BF00002614FF67F3282600133994210D904EB93
:104C0000431202F53060D2F8007B002FEADB002768
:104C1000C2F8007BEBE74FF00067C2F8007BE6E7E5
:104C2000DCF8103023F48073CCF810300023A3613B
:104C30006FF0804363619DF81E301BB9A36943F098
:104C40001003A361A2690C4B1343A3619DF82230AA
:104C50001BB1A36943F00803A361012E04D02846C9
:104C6000BDE8F84004B07047A36943F0804343F0C7
:104C70000403A361F3E700BF00383C80D0F8083894
:104C800003F00603022B04D0062B04D02BB900201E
:104C9000704702207047022070470F20704710B500
:104CA00091F800C04B78012B23D000F5006ED0F8AE
:104CB0001C380CF00F040122A24043EA0243C0F862
:104CC0001C3800EB4C10D0F8003B13F4004F0ED111
:104CD000D0F8003B8A68C2F30A02097942EA8142AD
:104CE000134343F0805343F40043C0F8003B0020DB
:104CF00010BDD0F81C280CF00F0E03FA0EF39BB277
:104D00001343C0F81C3800EB4C10D0F8003913F4F2
:104D1000004FECD1D0F800398A68C2F30A02097951
:104D200042EA814242EA8C52134343F0805343F4F7
:104D30000043C0F80039DAE730B40B784A78012A2A
:104D400026D000EB4313D3F8002B002A52DBD0F817
:104D50003C480A7802F00F024FF0010C0CFA02F204
:104D600024EA0242C0F83C28D0F81C28097801F057
:104D70000F010CFA01FC22EA0C42C0F81C28D3F8FF
:104D8000001B234A0A40C3F8002B002030BC7047A8
:104D900000EB4313D3F80029002A1EDBD0F83C585F
:104DA0000A7802F00F02012404FA02F292B225EA14
:104DB0000202C0F83C28D0F81C28097801F00F0145
:104DC0008C40A4B222EA0402C0F81C28D3F80019CF
:104DD000104A0A40C3F80029D7E7D3F8002942F067
:104DE0000062C3F80029D3F8002942F08042C3F8DA
:104DF0000029D3E7D3F8002B42F00062C3F8002B60
:104E0000D3F8002B42F08042C3F8002B9FE700BF8D
:104E10000078F3EF007833EC10B483B0024600233F
:104E20000193487801280BD00B7802EB4313D3F899
:104E3000000B00282DDB002003B05DF8044B704709
:104E40000B7802EB4313D3F80049002C01DB002060
:104E5000F2E7D3F8004944F00064C3F800490B7846
:104E600002EB4313D3F8004944F08044C3F80049EF
:104E7000019B01330193019C42F210739C42DBD8E9
:104E80000B7802EB4313D3F80039002BF0DB002042
:104E9000D2E7D3F8000B40F00060C3F8000B0B78AA
:104EA00002EB4313D3F8000B40F08040C3F8000B33
:104EB000019B01330193019842F21073984208D884
:104EC0000B7802EB4313D3F8003B002BF0DB002000
:104ED000B2E70120B0E710B59DF8084084B903336C
:104EE0004FEA930E4FF0000C08E000EB023303F59D
:104EF000805351F8044B1C600CF1010CF445F4D3C1
:104F0000002010BDF0B583B00C784B78012B2DD06C
:104F100000EB441C0CF530631D696FF312051D6135
:104F20001D696FF3DC451D61002C40F0CE800C69DB
:104F30000CB18C680C618C680C621D69C4F312049E
:104F40002C431C611C6944F400241C61012A00F0FC
:104F5000DF800B79012B00F0E180DCF8003B43F0AF
:104F60000443CCF8003B002003B0F0BD0B6973BBD9
:104F700000EB4413D3F810596FF3DC45C3F8105914
:104F8000D3F8105945F40025C3F81059D3F8105937
:104F90006FF31205C3F81059012A54D000EB4414E2
:104FA000D4F8003943F00443C4F800390B79012BDD
:104FB00072D00B69002BD6D0D0F83438097801F0C4
:104FC0000F0101228A401343C0F83438CBE700EBCD
:104FD000441303F510631D696FF312051D611D690C
:104FE0006FF3DC451D6184B90E698D68AE4200D94E
:104FF0000D611D6945F400251D611D690E69C6F32B
:10500000120C45EA0C051D61C6E70D698E68354432
:10501000013DB5FBF6F51E691FFA85FC494F07EA0D
:10502000C54535431D610D79012DE6D11D6925F07A
:10503000C0451D611D694FEA4C7C0CF0C04C45EA2F
:105040000C051D61D9E7CB691BB100EB4412C2F816
:1050500014390B79012B08D000EB4414D4F8003933
:1050600043F00443C4F800397DE7D0F8083813F45E
:10507000807F08D100EB4412D2F8003943F000538E
:10508000C2F80039E8E700EB4412D2F8003943F0E7
:105090008053C2F80039DFE7D0F8083813F4807F76
:1050A0000CD1D4F8003943F00053C4F80039009211
:1050B0000B8A0A78C968FFF70EFF54E7D4F8003965
:1050C00043F08053C4F80039F1E70C6954B91C6906
:1050D0008D68C5F312052C431C611C6944F400243F
:1050E0001C6133E78D682C44013CB4FBF5F4A4B299
:1050F00004FB05F50D621D69124E06EAC4442C43FB
:105100001C611C690D6AC5F312052C431C611DE767
:10511000CA68002A3FF41DAF5A611AE7D0F8083870
:1051200013F4807F06D1DCF8003B43F00053CCF849
:10513000003B12E7DCF8003B43F08053CCF8003B27
:105140000BE700BF0000F81F10B5844608464FEA81
:10515000920E02F00302002305E00CF5805109686D
:1051600040F8041B01337345F7D37AB10CF5805C2A
:10517000DCF800400021CBB2DB0024FA03F300F896
:10518000013B0131013A92B2002AF4D110BD0B78F3
:105190004A78012A14D000EB4310D0F8002B002AE3
:1051A00006DB2BB1D0F8003B23F08043C0F8003B76
:1051B000D0F8003B43F40013C0F8003B00207047D8
:1051C00000EB4310D0F80029002A06DB2BB1D0F801
:1051D000003923F08043C0F80039D0F8003943F497
:1051E0000013C0F80039E9E70B784A78012A0ED09D
:1051F00000EB4310D0F8003B23F40013C0F8003B51
:105200000B79023BDBB2012B15D90020704700EB74
:105210004310D0F8003923F40013C0F800390B799B
:10522000023BDBB2012BF0D8D0F8003943F08053B9
:10523000C0F80039E9E7D0F8003B43F08053C0F8EC
:10524000003BE2E7D0F8003823F4FE63C0F80038F2
:10525000D0F80038090101F4FE610B43C0F80038B2
:1052600000207047D0F8003E23F00303C0F8003E52
:10527000D0F8043823F00203C0F804380020704747
:10528000D0F8003E23F00303C0F8003ED0F8043805
:1052900043F00203C0F80438002070474269806977
:1052A00010407047D0F8183800F50060C069184009
:1052B000000C7047D0F8183800F50060C06918403D
:1052C00080B2704700EB4111D1F8082B00F5006067
:1052D000406910407047D0F81028D0F8343801F0F9
:1052E0000F0C23FA0CF3DB01DBB2134300EB41108C
:1052F00000F51060806818407047406900F00100B8
:10530000704738B50546C36823F0C043C360012920
:1053100013D019BBC36843F08043C36000240A2044
:10532000FDF7DCF90A342846FFF7E7FF08B1C72C80
:10533000F5D9C82C14D0002038BDC36843F0005301
:10534000C36000240A20FDF7C9F90A342846FFF794
:10535000D4FF0128EDD0C72CF4D9EAE70120EBE710
:105360000120E9E7D0F800396FF30A03C0F80039EB
:10537000D0F8043843F48073C0F804380020704734
:1053800010B4046C154B9C4203D9D0F8003B002BA1
:1053900016DB0024C0F8104BD0F8104B44F4002466
:1053A000C0F8104BD0F8104B44F01804C0F8104B64
:1053B000D0F8104B44F0C044C0F8104B012903D082
:1053C00000205DF8044B7047C0F8142BD0F8003B68
:1053D00043F08023C0F8003BF2E700BF0A30544F8F
:1053E00098B108B503460020C3F8B802C3F8C40258
:1053F000C3F8D00209B1C3F8B412012183F89C129A
:105400001A701846FEF74EFB08BD0320704710B512
:1054100082B00023ADF80630B9B10446C0F8B81226
:10542000D0F8D422CB6A43B1AE3250F82230DB6AD6
:105430000DF106009847C4F8D002D4F8D8320133F1
:10544000C4F8D832002002B010BD0320FBE708B535
:10545000FEF787FB08BD08B5D0F8B83213B11B685A
:10546000984708BD0020FCE708B5D0F8B8325B6863
:10547000984700B908BD0320FCE738B5044600F2A0
:10548000AA25284600F0C4F90123C4F89432B4F8E0
:10549000B032C4F8983294F8AA1201F01F03012B1D
:1054A00007D0022B0AD073B92946204600F084FBAE
:1054B00038BD2946204600F0BAFBF9E729462046C8
:1054C00000F0F7FBF4E701F080012046FEF764FBF3
:1054D000EEE7F8B50446012380F89C320023C0F8BB
:1054E00094324360C0F8A43280F8A032D0F8B832C9
:1054F000E3B15B68E3B1002198470746D0B9402388
:10550000002211462046FEF734FB012684F8636131
:105510004025A4F860512B46002280212046FEF74A
:1055200028FB84F8236025843846F8BD0027E6E789
:105530000027E4E70327E2E701740020704790F8B2
:105540009C32042B04D090F89C32DBB280F89D3260
:10555000042380F89C320020704790F89C32042B82
:1055600001D00020704790F89D32DBB280F89C3269
:10557000F7E708B590F89C32032B01D0002008BD56
:10558000D0F8B832002BF9D0DB69002BF6D0984761
:10559000F4E708B5D0F8D432AE3350F8233053B125
:1055A00090F89C22032A01D0002008BD1B6A23B179
:1055B00098470020F9E70320F7E70020F5E708B552
:1055C000D0F8D432AE3350F8233053B190F89C2247
:1055D000032A01D0002008BD5B6A23B19847002050
:1055E000F9E70320F7E70020F5E70020704708B54A
:1055F000012380F89C32D0F8B83223B15B6801797E
:10560000984710B908BD0020FCE70320FAE7002006
:1056100070470020704738B504460D46002944D134
:10562000D0F89432032B01D0084638BDD0F8583159
:10563000B0F86021934209D890F8AA3203F01F0312
:10564000012B12D0022B1ED0084613E09B1AC0F883
:105650005831D0F864111144C0F864119A4238BF2F
:105660001A4600F08DFC2846DFE790F8AE12FFF7EF
:10567000CEFF18B994F89C32032B09D0204600F0D5
:1056800087FC2846D1E790F8AE12FFF7C2FFF0E79B
:1056900000F1AE0354F823301A69002AEED0C4F8A2
:1056A000D4021B6920469847E8E701F07F01FFF725
:1056B000B0FF88B994F89C32032BB6D100F1AE0349
:1056C00054F823309A69002AAFD0C4F8D4029B69F9
:1056D000294620469847A8E70020A6E738B50446A3
:1056E0000D4600294BD1D0F89432022B07D094F804
:1056F000A00218B1002384F8A032284638BD826980
:10570000038C9A420DD89A4219D094F89C32032BFC
:1057100029D080212046FEF73FFA204600F043FCC6
:10572000E5E7D21A8261416A1944416200F00FFC38
:1057300000231A4619462046FEF74EFAD7E742697B
:105740009342E2D8D0F898329A42DED20022114633
:1057500000F0FDFB0021C4F898120B460A462046D3
:10576000FEF73AFAC3E7D4F8B832DA68002AD0D0A4
:105770000022C4F8D422DB6820469847C9E741F0EC
:105780008001FFF746FF88B994F89C32032BB5D10E
:1057900000F1AE0354F823305A69002AAED0C4F8A1
:1057A000D4025B69294620469847A7E70020A5E771
:1057B0000B88027813440B800378184470474288A2
:1057C00003789A4218D930B583B004460D46ADF837
:1057D00006306388BDF806209A420AD20DF1060110
:1057E000FFF7E6FF4378052BF3D18378AB42F0D186
:1057F00000E0002003B030BD0020704703460020C9
:1058000002E00130C0B201331A78002AF9D17047A2
:105810000B7803704B7843708B78CA7843EA022385
:1058200043800B794A7943EA022383808B79CA79D2
:1058300043EA0223C380704710B504468021FEF777
:10584000ABF900212046FEF7A7F910BD30B583B0B3
:1058500004460D460023ADF806304A88130A013B82
:10586000062B00F2AA80DFE803F0041E32A8A88C01
:105870009900D0F8B4321B680DF10601007C9847FE
:10588000EA88002A00F0A380BDF80630002B00F063
:1058900099809A4228BF1A46ADF806200146204654
:1058A00000F047FB8CE0037C43B9D0F8B8329B6A28
:1058B0000DF10600984702234370E1E7D0F8B832B3
:1058C000DB6A0DF10600984702234370D8E7D2B295
:1058D000052A52D8DFE802F003101D2A3744D0F819
:1058E000B4325B6823B10DF10601007C9847C7E72D
:1058F0002946FFF7A1FF63E0D0F8B4329B6823B1DB
:105900000DF10601007C9847BAE72946FFF794FF9E
:1059100056E0D0F8B432DB6823B10DF10601007C0B
:105920009847ADE72946FFF787FF49E0D0F8B43242
:105930001B6923B10DF10601007C9847A0E72946B9
:10594000FFF77AFF3CE0D0F8B4325B6923B10DF188
:105950000601007C984793E72946FFF76DFF2FE08B
:10596000D0F8B4329B6923B10DF10601007C984751
:1059700086E72946FFF760FF22E02946FFF75CFF34
:105980001EE0037C33B9D0F8B8325B6B0DF1060032
:10599000984775E72946FFF74FFF11E0037C43B9AD
:1059A000D0F8B8321B6B0DF10600984707234370FF
:1059B00066E72946FFF740FF02E02946FFF73CFF74
:1059C00003B030BD29462046FFF736FFF8E72046F2
:1059D00000F0DEFAF4E738B504468B88F3B9CB88DB
:1059E000E3B94B887F2B19D803F07F0590F89C32E0
:1059F000032B0CD080F89E522946FEF7DDF8204696
:105A000000F0C6FA35B1022384F89C3209E0FFF7B2
:105A100013FF06E0012384F89C3202E02046FFF7E2
:105A20000BFF38BD70B504460E468D782F4B1D70A8
:105A3000012D10D890F89C32DAB2022B0FD0032A35
:105A400026D0FFF7F9FE294B19782046FFF70CFD09
:105A50000325284670BDFFF7EFFE0325F9E7A5B142
:105A600045602946FFF7F7FC054638B13146204628
:105A7000FFF7E2FE022384F89C32EAE7204600F0BA
:105A800087FA032384F89C32E3E700F081FAE0E729
:105A9000CDB141688D4225D0C9B2FFF7E5FC134B6B
:105AA000197861602046FFF7D6FC0546B0B1314653
:105AB0002046FFF7C1FE21792046FFF7D5FC0223DF
:105AC00084F89C32C5E7022380F89C324560294661
:105AD000FFF7CAFC204600F05BFABAE7204600F068
